:020000040800F2
:100000000000012001020008480200084802000820
:1000100048020008480200084802000800000000EA
:10002000000000000000000000000000480200087E
:10003000480200080000000048020008B914000847
:100040004802000848020008480200084802000868
:100050004802000848020008480200084802000858
:100060004802000848020008480200084802000848
:100070004802000848020008480200084802000838
:10008000480200084802000848020008000000007A
:10009000000000000000000000000000480200080E
:1000A0004802000848020008480200084802000808
:1000B00048020008480200084802000848020008F8
:1000C00048020008480200084802000848020008E8
:1000D00048020008D5120008E312000800000000E2
:1000E000480200084802000848020008000000001A
:1000F00000000000000000000000000048020008AE
:1001000000000000480200084802000848020008F9
:1001100000000000000000000000000000000000DF
:100120004802000848020008480200084802000887
:10013000480200080000000000000000000000006D
:10014000000000000000000000000000480200085D
:10015000480200084802000848020008F11200089E
:1001600048020008480200080000000000000000EB
:10017000000000000000000000000000000000007F
:10018000000000004802000800000000000000001D
:100190004802000880B584B000AF0B4A3B1D07CA77
:1001A00083E8070000F052F800F054F900F0F4F989
:1001B0003B1D184600F05CF900F0E8F900231846F2
:1001C0001037BD4680BD00BF3C1C000880B500AFA5
:1001D000094B1B6883F00103074A1360064B1B6839
:1001E000DBB21946022000F0EDF80449002000F0CF
:1001F0006DFC00BF80BD00BF4C000020481C000803
:10020000DFF82CD00B480C490C4A914204DA50F824
:10021000043B41F8043BF8E709490A4A00239142AC
:1002200002DA41F8043BFAE7FFF7B4FFFEE700000B
:1002300000000120841C0008000000204C00002069
:100240004C00002030070020FEE7000080B588B099
:1002500000AF00233B600023BB804FF000024FF053
:100260000003C7E9062300237B616AE054497A69E9
:1002700013469B0013440B441B7820333B4413F874
:10028000203C002B59D14E497A6913469B001344F8
:100290000B441B7803F120023A4412F8202C01325F
:1002A000D2B220333B4403F8202C45497A691346E7
:1002B0009B0013440B441B78052B36D801A252F83F
:1002C00023F000BFDD020008EB020008F90200087D
:1002D00007030008130300081F0300084FF0010282
:1002E0004FF00003C7E9062320E04FF002024FF071
:1002F0000003C7E9062319E04FF004024FF00003A2
:10030000C7E9062312E04FF008024FF00003C7E9E7
:1003100006234FF010024FF00003C7E906234FF009
:1003200080024FF00003C7E9062300BF4FF0FF3201
:10033000D7E9060101F098F900E000BF7B690133BD
:100340007B617B69022B91DD00233B6130E01C491E
:100350003A6913469B0013440B441B783B721849BF
:100360003A6913469B0013440B4401331B787B729C
:100370000123BB721023FB7211493A6913469B009B
:1003800013440B4403331B78BB7300237B730C496A
:100390003A6913469B0013440B4402331B783B73AA
:1003A00007F10803184600F017FC3B6901333B6175
:1003B0003B69022BCBDD00BF00BF2037BD4680BDAF
:1003C0000000002080B586B000AF03460A46FB71EE
:1003D0001346BB710023FB75FB79022B02D9022364
:1003E000FB7530E0BB79012B02D90123FB752AE0B4
:1003F000FA79174913469B0013440B441B783B6161
:10040000FA79134913469B0013440B4401331B78BC
:10041000FB60FA790E4913469B0013440B440433E6
:100420001A78BB795340FB723B69DBB2FA68D1B2F0
:10043000FA7A184600F0B2FC0346FB75FB7D002BF0
:1004400001D00323FB75FB7D18461837BD4680BDE0
:100450000000002080B500AF012000F0B5FF0121B1
:10046000024801F00DF800BF80BD00BF0105000883
:1004700080B485B000AF78600023FB737B681B6895
:10048000002B02D10123FB7330E07B689A681B4983
:1004900013465B0013449B000B441B68002B02D0E7
:1004A0000223FB7322E07B689A687B681968134813
:1004B00013465B0013449B00034419607B689A68F1
:1004C0007B6859680D4813465B0013449B00034446
:1004D000043319607B689A687B68996807481346FB
:1004E0005B0013449B00034408331960FB7B1846F0
:1004F0001437BD465DF8047B704700BFE001002063
:1005000080B582B000AF00237B6032E01D4A7B687B
:1005100052F823305A1C1B497B6841F823201A49A2
:100520007A6813465B0013449B000B441B68002B46
:100530001CD0144A7B6852F8231013487A6813467B
:100540005B0013449B00034404331B6899420DD1A4
:100550000D497A6813465B0013449B000B441B68EB
:100560009847084A7B68002142F823107B680133D2
:100570007B607B68632BC9D900BF00BF0837BD46CD
:1005800080BD00BF50000020E001002080B500AF1A
:1005900000F008FFFEE700002DE9B04F96B000AF75
:1005A000002387F857304FF000024FF00003C7E9EF
:1005B00010234FF000024FF00003C7E9122300237D
:1005C00087F83F30002387F857307BE097F85720B3
:1005D000D44913469B0013449B000B4404331B78FF
:1005E000D14ADB001344D3E90023C7E9102397F86D
:1005F0005720CC4913469B0013449B000B441B78A7
:10060000052B0AD1D7E9122342F0800139617B61C1
:10061000D7E90423C7E9122316E097F85720C14908
:1006200013469B0013449B000B441B781A4601237E
:100630009340DA171C461546D7E9122342EA040A0A
:1006400043EA050BC7E912AB97F85720B5491346A3
:100650009B0013449B000B4402331B78052B0AD1EB
:10066000D7E9122342F08001B960FB60D7E9022389
:10067000C7E912231BE097F85720AA4913469B00AD
:1006800013449B000B4402331B781A46012393400A
:10069000DA1798469146D7E9122342EA08013960F1
:1006A00043EA09037B60D7E90023C7E912234FF02F
:1006B000FF32D7E9100100F0D7FF97F85730013328
:1006C00087F8573097F85730002B3FF47FAF4FF043
:1006D000FF32D7E9120100F0C7FF002387F8573037
:1006E00087E197F857208F4913469B0013449B00DE
:1006F0000B4404331B788C4ADB001344D3E90023FA
:10070000C7E9102397F85720864913469B001344E6
:100710009B000B4404331B781A46844B9B5C87F880
:100720003F3097F857207F4913469B0013449B00A6
:100730000B4402331B783B7697F8572079491346D0
:100740009B0013449B000B4403331B787B760223EE
:10075000BB760223BB7700233B7700237B7797F898
:100760005720704913469B0013449B000B440433ED
:100770001B78012B02D80723FB7601E00823FB76C8
:1007800007F1200307F1180292E803001860043310
:10079000198002330A0C1A7097F8572061491346E2
:1007A0009B0013449B000B441B7887F8203097F87C
:1007B00057205C4913469B0013449B000B440133B4
:1007C0001B7887F8213097F85720564913469B002D
:1007D00013449B000B4412331B7887F82F3097F893
:1007E0005720504913469B0013449B000B44083389
:1007F0001B687B6397F857204A4913469B001344B4
:100800009B000B4410331B883B8697F857204549C3
:1008100013469B0013449B000B440E331B7887F850
:100820002E3097F857203F4913469B0013449B00F6
:100830000B440C331B88BB8597F857203949134666
:100840009B0013449B000B4404331B7887F828302B
:100850004FF400637B8507F11803184600F0BCF9DC
:1008600007F12003184600F0B7F907F128031846EE
:1008700000F0D8FA97F857202A4913469B001344F2
:100880009B000B4404331B780021184600F084FCC5
:1008900097F85720234913469B0013449B000B44B1
:1008A00004331B780021184600F0A4FC97F83F3071
:1008B000184600F04DFD97F83F30184600F020FD37
:1008C00097F85720174913469B0013449B000B448D
:1008D00012331B780C2B4BD00C2B00F38480042B91
:1008E00028D0082B7FD197F857200E4913469B003C
:1008F00013449B000B4404331B7800220C49184618
:1009000000F082FB97F85720064913469B001344DA
:100910009B000B4404331B780121184600F0FCFBBC
:1009200062E000BF10000020601C0008781C000876
:10093000210B000897F85720334913469B001344B6
:100940009B000B4404331B7801223049184600F009
:100950005BFB97F857202C4913469B0013449B00E0
:100960000B4404331B780221184600F0D5FB3BE012
:1009700097F85720244913469B0013449B000B44CF
:1009800004331B7801222149184600F03DFB97F8FB
:1009900057201D4913469B0013449B000B4404330E
:1009A0001B7800221A49184600F02EFB97F85720B2
:1009B000154913469B0013449B000B4404331B78DA
:1009C0000221184600F0A8FB97F857200E4913465D
:1009D0009B0013449B000B4404331B7801211846F1
:1009E00000F09AFB00E000BF97F85730013387F81A
:1009F000573097F85730002B3FF473AE00BF00BF5D
:100A00005837BD46BDE8B08F10000020750B0008B8
:100A1000210B000880B584B000AF03463960FB713C
:100A20001346BB710023FB730023BB733B68002B91
:100A300002D10323FB733AE0FB79002B02D00123A0
:100A4000FB7334E0BB79642B02D90223FB732EE0E5
:100A5000194ABB791370FA79184913469B0013445D
:100A60009B000B4404331A78154B1A7009E0BB7BCA
:100A70003A681A44BB7B1178124AD154BB7B0133CC
:100A8000BB73BA7BBB799A42F1D30D4B1B78DAB2B8
:100A90000D4B1B78DBB2591CC8B20B4908701946C4
:100AA000084B5B5CDBB21946104600F0DBFAFB7BBF
:100AB00018461037BD4680BDF80600201000002003
:100AC0000F00002090060020FA06002080B584B0B8
:100AD00000AF03463960FB710023FB730023BB7337
:100AE00004E0BB7BDBB20133DBB2BB73BB7BDBB2AD
:100AF0001A463B6813441B78002B03D0BB7BDBB248
:100B0000632BEED9BB7BDAB2FB7939681846FFF765
:100B100081FF0346FB73FB7B18461037BD4680BD43
:100B200080B500AF0F4B1B78DAB20F4B1B78DBB2EE
:100B30009A4212D20D4B1B78DAB20A4B1B78DBB209
:100B4000591CC8B2074908701946094B5B5CDBB2F7
:100B50001946104600F086FA02E0024B00221A7095
:100B600000BF80BDFA060020F80600200F0000201C
:100B70009006002080B500AF124B1B68002B1FD0E1
:100B8000114B1B78DAB2114B1B78DBB29A4211D2AF
:100B90000F4B1B78DAB20C4B1B78DBB2591CC8B276
:100BA0000949087019460B4B0B441946104600F0D2
:100BB00083FA05E0034B00221A60034B00221A70EF
:100BC00000BF80BDF4060020FB060020F9060020CF
:100BD0000F0000209006002080B487B000AF78603E
:100BE0000023FB757B68002B02D10823FB75CBE04B
:100BF0007B681B78052B02D90123FB75C4E07B6859
:100C00005B780F2B02D90223FB75BDE07B68DB7894
:100C1000102B02D90323FB75B6E07B689B78032B6E
:100C200002D90623FB75AFE07B681B79012B02D943
:100C30000423FB75A8E07B685B79022B02D90523AE
:100C4000FB75A1E07B681B781A46534B53F82230A2
:100C50003B610023FB603B691B687A685278520055
:100C6000032101FA02F2D24313407A6892781146C6
:100C70007A685278520001FA02F21A433B691A600C
:100C80003B695B687A685278114601228A40D243F8
:100C900013407A68127911467A68527801FA02F2A2
:100CA0001A433B695A603B699B687A6852785200E4
:100CB000032101FA02F2D24313407A689279114675
:100CC0007A685278520001FA02F21A433B699A603C
:100CD0003B69DB687A6852785200032101FA02F21C
:100CE000D24313407A68527911467A68527852009A
:100CF00001FA02F21A433B69DA607B689B78022BA7
:100D000042D17B68DB780F2B02D90323FB753BE0D4
:100D10007B685B78072B1CD97B685B78083BFB60A2
:100D2000FB689B00FB603B695B6A0F21FA6801FA74
:100D300002F2D2431A403B695A623B695B6A7A68A5
:100D4000D2781146FA6801FA02F21A433B695A62F4
:100D50001AE07B685B78FB60FB689B00FB603B698B
:100D60001B6A0F21FA6801FA02F2D2431A403B696A
:100D70001A623B691B6A7A68D2781146FA6801FAEE
:100D800002F21A433B691A62FB7D18461C37BD46C6
:100D90005DF8047B704700BF2400002080B487B05A
:100DA00000AF0346FB710B46BB7113467B710023FA
:100DB000FB75FB79052B02D90123FB7528E0BB7974
:100DC0000F2B02D90223FB7522E07B79012B02D97C
:100DD0000723FB751CE0FB79114A52F823303B6175
:100DE0003B691833FB607B79002B07D0BB7901226C
:100DF00002FA03F39AB2FB681A8009E0FB68023337
:100E0000FB60BB79012202FA03F39AB2FB681A80F5
:100E1000FB7D18461C37BD465DF8047B704700BF5C
:100E20002400002080B588B000AF78600023FB77F5
:100E30007B681B781A46724B53F82230BB61002343
:100E4000FB600023FB8200237B7500233B617B68F2
:100E5000002B02D10C23FB77CCE07B681B78022BA4
:100E600002D90123FB77C5E07B685B8823F400632C
:100E7000002B02D00423FB77BCE07B689B8823F423
:100E80008053002B02D00523FB77B3E07B681B89DE
:100E900023F4C063002B02D00623FB77AAE07B6813
:100EA000DB7923F00C03002B02D00723FB77A1E0B2
:100EB0007B689B79032B02D90823FB779AE07B6838
:100EC0001B78022B14D0022B19DC002B02D0012B33
:100ED00007D014E007F10C031946022000F06CFC67
:100EE0000EE007F10C031946012000F065FC07E055
:100EF00007F10C031946022000F05EFC00E000BF81
:100F0000BB69DB6823F40052BB69DA60BB691B690B
:100F100023F400637A6852881A43BB691A61BB697B
:100F2000DB6823F00C037A68D2791A43BB69DA6074
:100F3000BB69DB6823F480537A6892881A43BB69E3
:100F4000DA60BB69DB6823F4C0637A6812891A43EC
:100F5000BB69DA60BB691B6923F0704323F440531B
:100F60007A68927912031A43BB691A61FA687B683E
:100F7000DB681B01B2FBF3F3FB82FB68FA8A120108
:100F80009A1A7B68DB68B2FBF3F3184600F0BCFDED
:100F90004FF000021B4B00F07BFC02460B46104654
:100FA000194600F02BFE03467B75BB699B681B0C42
:100FB0001B04BA699360BB699A687B7D1A43BB695D
:100FC0009A60BB699B68FA8A12011A43BB699A60EE
:100FD000BB691B6823F04002BB691A60BB691B68D0
:100FE00023F02002BB691A60BB69DB6843F400523E
:100FF000BB69DA60FB7F18462037BD4680BD00BF65
:101000003C0000200000E03F80B485B000AF034604
:101010003960FB711346BB710023FB733B68002BE7
:1010200002D10C23FB7313E0FB79022B02D90123BD
:10103000FB730DE0BB79012B02D90923FB7307E099
:10104000FA79BB790649520013443A6841F82320E3
:10105000FB7B18461437BD465DF8047B704700BF24
:10106000FC06002080B485B000AF03460A46FB7141
:101070001346BB710023FB73FB790E4A52F82330F1
:10108000BB60FB79022B02D90123FB730BE0BB6829
:101090001B6803F08003002B02D10223FB7302E0E4
:1010A000BA79BB685A60FB7B18461437BD465DF8B9
:1010B000047B70473C00002080B485B000AF03463D
:1010C0003960FB710023FB73FB79124A52F823301D
:1010D000BB603B68002B02D10C23FB7313E0FB7950
:1010E000022B02D90123FB730DE0BB681B6803F0E0
:1010F0002003002B02D10323FB7304E0BB685B6871
:10110000DAB23B681A70FB7B18461437BD465DF8AF
:10111000047B70473C00002080B485B000AF0346DC
:101120000A46FB711346BB710023FB73FB79194A16
:1011300052F82330BB60FB79022B02D90123FB73E9
:1011400021E0BB79022B14D0022B19DC002B02D03A
:10115000012B07D014E0BB68DB6843F08002BB685A
:10116000DA6010E0BB68DB6843F04002BB68DA601D
:1011700009E0BB68DB6843F02002BB68DA6002E08C
:101180000A23FB7300BFFB7B18461437BD465DF88E
:10119000047B70473C00002080B485B000AF03465C
:1011A0000A46FB711346BB710023FB73FB79104A9F
:1011B00052F82330BB60FB79022B02D90123FB7369
:1011C0000EE0BB79012B02D90B23FB7308E0BB684F
:1011D0001B6823F04003BA7992011A43BB681A6076
:1011E000FB7B18461437BD465DF8047B704700BF93
:1011F0003C00002080B485B000AF03460A46FB7176
:101200001346BB710023FB73FB79104A52F823305D
:10121000BB60FB79022B02D90123FB730EE0BB7983
:10122000012B02D90B23FB7308E0BB681B6823F07A
:101230002003BA7992011A43BB681A60FB7B1846F7
:101240001437BD465DF8047B704700BF3C000020AA
:1012500080B584B000AF0346FB71FB791B4A52F89E
:101260002330FB60FB681B6803F04003002B10D0A9
:10127000FB681B6823F04002FB681A60FB79144A84
:1012800052F83330002B04D0FB79114A52F8333036
:101290009847FB681B6803F02003002B12D0FB6803
:1012A0001B6823F02002FB681A60FB79084ADB0008
:1012B00013445B68002B05D0FB79054ADB0013441F
:1012C0005B68984700BF1037BD4680BD3C000020DA
:1012D000FC06002080B500AF0020FFF7B9FF00BF7B
:1012E00080BD80B500AF0120FFF7B2FF00BF80BD19
:1012F00080B500AF0220FFF7ABFF00BF80BD00004C
:1013000080B487B000AF0346FB710023FB750F4B21
:101310003B61FB7903F01F03FB73FB795B09BB7334
:10132000FB79EF2B02D90123FB7508E0FB7B01223F
:1013300002FA03F3BA7B19463B6943F82210FB7D9E
:1013400018461C37BD465DF8047B704700E100E09D
:1013500080B487B000AF0346FB710023FB75104BD0
:101360003B61FB7903F01F03FB73FB795B09BB73E4
:10137000FB79EF2B02D90123FB7509E0FB7B0122EE
:1013800002FA03F3BA7B19463B69603243F8221034
:10139000FB7D18461C37BD465DF8047B704700BFD7
:1013A00000E100E080B400AF064B1B681A68054BF3
:1013B0001B6842F001021A6000BFBD465DF8047B65
:1013C000704700BF4800002080B586B000AF0346DC
:1013D000FB7100233B610023FB600023FB75FB795D
:1013E00023F00903002B02D00123FB753CE007F139
:1013F0000C031946002000F0DFF91E4B1B68002289
:101400009A601D4B00221A601B4B00225A601A4B37
:1014100000229A60FB79012B08D1164B1B681A68D1
:10142000144B1B6842F004021A600AE0114B1B685F
:101430001A68104B1B6822F004021A60FB68DB0874
:10144000FB60FB680D4AA2FB03239B0901333B6150
:10145000084B1B683A695A60064B1B681A68054BB3
:101460001B6842F002021A60FB7D18461837BD4621
:1014700080BD00BF4800002018070020D34D621037
:1014800080B485B000AF786039600023FB737B685F
:10149000002B02D10423FB7305E0064A7B6813602E
:1014A000044A3B689360FB7B18461437BD465DF8E1
:1014B000047B70471807002080B500AF114B5B68B4
:1014C0000133104A5360104B1B68002B05D00E4BA4
:1014D0001B68013B0C4A136002E00B4B00221A60B0
:1014E000084B1B68002B0BD0064B5A68054B9B68BA
:1014F0009A4205D1034B1B689847024B00225A6061
:1015000000BF80BD180700201407002080B485B0FC
:1015100000AF144BBB600023FB60BB681B68DBB2F1
:101520009B10DBB203F00303FB71FB79022B0DD0A0
:10153000022B0FDC002B02D0012B03D00AE0012389
:10154000FB6008E04FF48033FB6004E04FF08073F1
:10155000FB6000E000BFFB6818461437BD465DF82D
:10156000047B70470038024080B584B000AF7860DB
:1015700039600023FB732D4B5B791A462B4B1B798B
:1015800019462A4B9B7901FB03F392FBF3F3BB60F3
:101590003B68002B02D10423FB7341E07B68B3F16D
:1015A000807F1CD07B68B3F1807F36D87B68012BAD
:1015B00004D07B68B3F5803F04D02EE03B681C4A22
:1015C0001A602DE000F03AF80346002B03D03B6888
:1015D000184A1A6024E03B68164A1A6020E0134B50
:1015E0001B68B3F5803F12D100F028F80346002BAA
:1015F00006D0BB68104A03FB02F23B681A600CE09D
:10160000BB680C4A03FB02F23B681A6005E0BB684A
:10161000074A03FB02F23B681A600123FB7300BF19
:10162000FB7B18461037BD4680BD00BF2407002055
:101630000024F40000127A0040787D0180B483B069
:1016400000AF084B7B607B681B6803F48043002B72
:1016500014BF01230023DBB218460C37BD465DF8EA
:10166000047B704700380240B0B48BB000AFC7E9CC
:1016700002017A60002387F827304B4B3B62BB683E
:10168000FB61D7E9022300241D46C7E904457B68B6
:10169000002B07D07B68B3F1FF3F03D0022387F80C
:1016A00027307AE0D7E90423191F52EA01035BD0FF
:1016B000D7E90423012A73F104036AD2D7E904238A
:1016C000991E52EA01033AD0D7E90423012A73F1A3
:1016D00002035ED2D7E90423134306D0D7E90423DB
:1016E000591E52EA010315D053E0FA692F4B1340FB
:1016F000002B03D0082387F827304EE03B6A1A6B93
:10170000FB69DB431A40F9697B680B401A433B6A6B
:101710001A6342E0FB6923F08003002B03D0082307
:1017200087F8273039E03B6A5A6BFB69DB431A4084
:10173000F9697B680B401A433B6A5A632DE0FA69EA
:101740001B4B1340002B03D0082387F8273024E0DD
:101750003B6A1A6CFB69DB431A40F9697B680B40F2
:101760001A433B6A1A6418E0FA69124B1340002BC3
:1017700003D0082387F827300FE03B6A5A6CFB69D7
:10178000DB431A40F9697B680B401A433B6A5A6491
:1017900003E0082387F8273000BF97F82730184662
:1017A0002C37BD46B0BC70470038024060EF9FFF49
:1017B000F0371DEFCE86F8FF80B586B000AF034648
:1017C0003960FB710023FB752D4B5B781A460123B2
:1017D00093407B752A4B9B781A46012393403B75B7
:1017E0000023BB75FFF792FE38610023FB6007F111
:1017F0000C0319463869FFF7B7FE7B7D042B07D928
:101800001F4B1B780133012202FA03F3BB7505E07D
:101810001B4B1B781A4601239340BB753B68002B7A
:1018200002D10423FB7526E0FB79022B17D0022B93
:101830001FDC002B02D0012B07D01AE0FA68BB7D19
:10184000B2FBF3F23B681A6015E0FB68BA7D797D64
:1018500001FB02F2B3FBF2F23B681A600BE0FB689B
:10186000BA7D397D01FB02F2B3FBF2F23B681A60EC
:1018700001E00A23FB75FB7D18461837BD4680BD85
:101880002C07002081F0004102E000BF83F00043FC
:1018900030B54FEA41044FEA430594EA050F08BF0B
:1018A00090EA020F1FBF54EA000C55EA020C7FEACF
:1018B000645C7FEA655C00F0E2804FEA5454D4EB4C
:1018C0005555B8BF6D420CDD2C4480EA020281EA16
:1018D000030382EA000083EA010180EA020281EA4E
:1018E0000303362D88BF30BD11F0004F4FEA0131A0
:1018F0004FF4801C4CEA113102D0404261EB4101AF
:1019000013F0004F4FEA03334CEA133302D0524234
:1019100063EB430394EA050F00F0A780A4F10104F0
:10192000D5F1200E0DDB02FA0EFC22FA05F280182A
:1019300041F1000103FA0EF2801843FA05F3594110
:101940000EE0A5F120050EF1200E012A03FA0EFC8F
:1019500028BF4CF0020C43FA05F3C01851EBE371B9
:1019600001F0004507D54FF0000EDCF1000C7EEBD6
:1019700000006EEB0101B1F5801F1BD3B1F5001F14
:101980000CD349085FEA30004FEA3C0C04F1010433
:101990004FEA445212F5800F80F09A80BCF1004F5C
:1019A00008BF5FEA500C50F1000041EB045141EADE
:1019B000050130BD5FEA4C0C404141EB0101013CA7
:1019C00028BFB1F5801FE9D291F0000F04BF014696
:1019D0000020B1FA81F308BF2033A3F10B03B3F168
:1019E00020020CDA0C3208DD02F1140CC2F10C02F8
:1019F00001FA0CF021FA02F10CE002F11402D8BF56
:101A0000C2F1200C01FA02F120FA0CFCDCBF41EA21
:101A10000C019040E41AA2BF01EB0451294330BDF0
:101A20006FEA04041F3C1CDA0C340EDC04F11404CD
:101A3000C4F1200220FA04F001FA02F340EA0300A4
:101A400021FA04F345EA030130BDC4F10C04C4F1EA
:101A5000200220FA02F001FA04F340EA03002946CA
:101A600030BD21FA04F0294630BD94F0000F83F414
:101A7000801306BF81F480110134013D4EE77FEAF7
:101A8000645C18BF7FEA655C29D094EA050F08BF43
:101A900090EA020F05D054EA000C04BF1946104624
:101AA00030BD91EA030F1EBF0021002030BD5FEA68
:101AB000545C05D14000494128BF41F0004130BD90
:101AC00014F580043CBF01F5801130BD01F00045E4
:101AD00045F0FE4141F470014FF0000030BD7FEA57
:101AE000645C1ABF194610467FEA655C1CBF0B4652
:101AF000024650EA013406BF52EA033591EA030F69
:101B000041F4002130BD00BF90F0000F04BF002160
:101B1000704730B54FF4806404F132044FF0000593
:101B20004FF0000150E700BF90F0000F04BF00210C
:101B3000704730B54FF4806404F1320410F0004572
:101B400048BF40424FF000013EE700BF42004FEA6D
:101B5000E2014FEA31014FEA02701FBF12F07F43EA
:101B600093F07F4F81F06051704732F07F4208BFA1
:101B7000704793F07F4F04BF41F40021704730B5A8
:101B80004FF4607401F0004521F000411CE700BFF4
:101B900050EA010208BF704730B54FF000050AE077
:101BA00050EA010208BF704730B511F0004502D578
:101BB000404261EB41014FF4806404F132045FEA7A
:101BC000915C3FF4D8AE4FF003025FEADC0C18BF23
:101BD00003325FEADC0C18BF033202EBDC02C2F115
:101BE000200300FA03FC20FA02F001FA03FE40EAA7
:101BF0000E0021FA02F11444BDE600BF4A0011D2E2
:101C000012F5001211D20DD56FF47873B3EB625256
:101C10000ED44FEAC12343F0004343EA505323FA62
:101C200002F070474FF00000704750EA013002D1D7
:101C30004FF0FF3070474FF000007047CD010008B3
:101C4000E803000014000000546F67676C656420AF
:101C50006C65642073746174650D0A0000000000F7
:101C6000100000000400000000000200020000005C
:0C1C7000200000000400000025264700B2
:041C7C00F8B500BFF8
:041C8000F8B500BFF4
:101C840000000000000001000000020D000001013E
:101C94000002000301000000802500000000000095
:101CA40000000C0000000240000402400008024052
:101CB400000C024000100240001C024000100140D1
:0C1CC400004400400014014010E000E06B
:0400000508000201EC
:00000001FF
